{
  "abi": [
    {
      "type": "constructor",
      "inputs": [
        {
          "name": "_name",
          "type": "string",
          "internalType": "string"
        },
        {
          "name": "_description",
          "type": "string",
          "internalType": "string"
        },
        {
          "name": "_goal",
          "type": "uint256",
          "internalType": "uint256"
        },
        {
          "name": "_deadline",
          "type": "uint256",
          "internalType": "uint256"
        },
        {
          "name": "_owner",
          "type": "address",
          "internalType": "address"
        }
      ],
      "stateMutability": "nonpayable"
    },
    {
      "type": "function",
      "name": "addTier",
      "inputs": [
        {
          "name": "_name",
          "type": "string",
          "internalType": "string"
        },
        {
          "name": "_amount",
          "type": "uint256",
          "internalType": "uint256"
        }
      ],
      "outputs": [],
      "stateMutability": "nonpayable"
    },
    {
      "type": "function",
      "name": "extendCampaignDeadline",
      "inputs": [
        {
          "name": "_additionalDays",
          "type": "uint256",
          "internalType": "uint256"
        }
      ],
      "outputs": [],
      "stateMutability": "nonpayable"
    },
    {
      "type": "function",
      "name": "fund",
      "inputs": [
        {
          "name": "_tierIndex",
          "type": "uint256",
          "internalType": "uint256"
        }
      ],
      "outputs": [],
      "stateMutability": "payable"
    },
    {
      "type": "function",
      "name": "getBackerAmount",
      "inputs": [
        {
          "name": "_backer",
          "type": "address",
          "internalType": "address"
        }
      ],
      "outputs": [
        {
          "name": "",
          "type": "uint256",
          "internalType": "uint256"
        }
      ],
      "stateMutability": "view"
    },
    {
      "type": "function",
      "name": "getBackerHasFundedTier",
      "inputs": [
        {
          "name": "_backer",
          "type": "address",
          "internalType": "address"
        },
        {
          "name": "_tierIndex",
          "type": "uint256",
          "internalType": "uint256"
        }
      ],
      "outputs": [
        {
          "name": "",
          "type": "bool",
          "internalType": "bool"
        }
      ],
      "stateMutability": "view"
    },
    {
      "type": "function",
      "name": "getCampaignBalance",
      "inputs": [],
      "outputs": [
        {
          "name": "",
          "type": "uint256",
          "internalType": "uint256"
        }
      ],
      "stateMutability": "view"
    },
    {
      "type": "function",
      "name": "getCampaignDeadline",
      "inputs": [],
      "outputs": [
        {
          "name": "",
          "type": "uint256",
          "internalType": "uint256"
        }
      ],
      "stateMutability": "view"
    },
    {
      "type": "function",
      "name": "getCampaignDescription",
      "inputs": [],
      "outputs": [
        {
          "name": "",
          "type": "string",
          "internalType": "string"
        }
      ],
      "stateMutability": "view"
    },
    {
      "type": "function",
      "name": "getCampaignGoal",
      "inputs": [],
      "outputs": [
        {
          "name": "",
          "type": "uint256",
          "internalType": "uint256"
        }
      ],
      "stateMutability": "view"
    },
    {
      "type": "function",
      "name": "getCampaignName",
      "inputs": [],
      "outputs": [
        {
          "name": "",
          "type": "string",
          "internalType": "string"
        }
      ],
      "stateMutability": "view"
    },
    {
      "type": "function",
      "name": "getCampaignStatus",
      "inputs": [],
      "outputs": [
        {
          "name": "",
          "type": "uint8",
          "internalType": "enum CrowdFunding.CampaignStatus"
        }
      ],
      "stateMutability": "view"
    },
    {
      "type": "function",
      "name": "getCampaignStatusRow",
      "inputs": [],
      "outputs": [
        {
          "name": "",
          "type": "uint8",
          "internalType": "enum CrowdFunding.CampaignStatus"
        }
      ],
      "stateMutability": "view"
    },
    {
      "type": "function",
      "name": "getFundingTierInfo",
      "inputs": [
        {
          "name": "_index",
          "type": "uint256",
          "internalType": "uint256"
        }
      ],
      "outputs": [
        {
          "name": "",
          "type": "tuple",
          "internalType": "struct CrowdFunding.Tier",
          "components": [
            {
              "name": "name",
              "type": "string",
              "internalType": "string"
            },
            {
              "name": "amount",
              "type": "uint256",
              "internalType": "uint256"
            },
            {
              "name": "backers",
              "type": "uint256",
              "internalType": "uint256"
            }
          ]
        }
      ],
      "stateMutability": "view"
    },
    {
      "type": "function",
      "name": "getFundingTiers",
      "inputs": [],
      "outputs": [
        {
          "name": "",
          "type": "tuple[]",
          "internalType": "struct CrowdFunding.Tier[]",
          "components": [
            {
              "name": "name",
              "type": "string",
              "internalType": "string"
            },
            {
              "name": "amount",
              "type": "uint256",
              "internalType": "uint256"
            },
            {
              "name": "backers",
              "type": "uint256",
              "internalType": "uint256"
            }
          ]
        }
      ],
      "stateMutability": "view"
    },
    {
      "type": "function",
      "name": "getIsPaused",
      "inputs": [],
      "outputs": [
        {
          "name": "",
          "type": "bool",
          "internalType": "bool"
        }
      ],
      "stateMutability": "view"
    },
    {
      "type": "function",
      "name": "getTierCount",
      "inputs": [],
      "outputs": [
        {
          "name": "",
          "type": "uint256",
          "internalType": "uint256"
        }
      ],
      "stateMutability": "view"
    },
    {
      "type": "function",
      "name": "owner",
      "inputs": [],
      "outputs": [
        {
          "name": "",
          "type": "address",
          "internalType": "address"
        }
      ],
      "stateMutability": "view"
    },
    {
      "type": "function",
      "name": "refund",
      "inputs": [],
      "outputs": [],
      "stateMutability": "nonpayable"
    },
    {
      "type": "function",
      "name": "removeTier",
      "inputs": [
        {
          "name": "_index",
          "type": "uint256",
          "internalType": "uint256"
        }
      ],
      "outputs": [],
      "stateMutability": "nonpayable"
    },
    {
      "type": "function",
      "name": "renounceOwnership",
      "inputs": [],
      "outputs": [],
      "stateMutability": "nonpayable"
    },
    {
      "type": "function",
      "name": "togglePause",
      "inputs": [],
      "outputs": [],
      "stateMutability": "nonpayable"
    },
    {
      "type": "function",
      "name": "transferOwnership",
      "inputs": [
        {
          "name": "newOwner",
          "type": "address",
          "internalType": "address"
        }
      ],
      "outputs": [],
      "stateMutability": "nonpayable"
    },
    {
      "type": "function",
      "name": "withdraw",
      "inputs": [],
      "outputs": [],
      "stateMutability": "nonpayable"
    },
    {
      "type": "event",
      "name": "CampaignFunded",
      "inputs": [
        {
          "name": "donor",
          "type": "address",
          "indexed": true,
          "internalType": "address"
        },
        {
          "name": "amount",
          "type": "uint256",
          "indexed": false,
          "internalType": "uint256"
        }
      ],
      "anonymous": false
    },
    {
      "type": "event",
      "name": "CampaignRefunded",
      "inputs": [
        {
          "name": "backer",
          "type": "address",
          "indexed": true,
          "internalType": "address"
        },
        {
          "name": "amount",
          "type": "uint256",
          "indexed": false,
          "internalType": "uint256"
        }
      ],
      "anonymous": false
    },
    {
      "type": "event",
      "name": "CampaignWithdrawn",
      "inputs": [
        {
          "name": "owner",
          "type": "address",
          "indexed": true,
          "internalType": "address"
        },
        {
          "name": "amount",
          "type": "uint256",
          "indexed": false,
          "internalType": "uint256"
        }
      ],
      "anonymous": false
    },
    {
      "type": "event",
      "name": "OwnershipTransferred",
      "inputs": [
        {
          "name": "previousOwner",
          "type": "address",
          "indexed": true,
          "internalType": "address"
        },
        {
          "name": "newOwner",
          "type": "address",
          "indexed": true,
          "internalType": "address"
        }
      ],
      "anonymous": false
    },
    {
      "type": "error",
      "name": "CrowdFunding__CampaignGoalNotMetYet",
      "inputs": []
    },
    {
      "type": "error",
      "name": "CrowdFunding__CampaignHasEnded",
      "inputs": []
    },
    {
      "type": "error",
      "name": "CrowdFunding__CampaignHasPaused",
      "inputs": []
    },
    {
      "type": "error",
      "name": "CrowdFunding__CampaignRefundNotAllowed",
      "inputs": []
    },
    {
      "type": "error",
      "name": "CrowdFunding__InsufficientFunds",
      "inputs": []
    },
    {
      "type": "error",
      "name": "CrowdFunding__InvalidTierIndex",
      "inputs": []
    },
    {
      "type": "error",
      "name": "CrowdFunding__NoContributionMade",
      "inputs": []
    },
    {
      "type": "error",
      "name": "CrowdFunding__TierAmountMustBeGreaterThanZero",
      "inputs": []
    },
    {
      "type": "error",
      "name": "CrowdFunding__TransferFailed",
      "inputs": []
    },
    {
      "type": "error",
      "name": "OwnableInvalidOwner",
      "inputs": [
        {
          "name": "owner",
          "type": "address",
          "internalType": "address"
        }
      ]
    },
    {
      "type": "error",
      "name": "OwnableUnauthorizedAccount",
      "inputs": [
        {
          "name": "account",
          "type": "address",
          "internalType": "address"
        }
      ]
    }
  ],
  "bytecode": {
    "object": "0x608060405234801561000f575f5ffd5b50604051612a28380380612a28833981810160405281019061003191906103c7565b805f73ffffffffffffffffffffffffffffffffffffffff168173ffffffffffffffffffffffffffffffffffffffff16036100a2575f6040517f1e4fbdf70000000000000000000000000000000000000000000000000000000081526004016100999190610485565b60405180910390fd5b6100b18161012c60201b60201c565b5084600190816100c191906106a5565b5083600290816100d191906106a5565b508260038190555062015180826100e891906107a1565b426100f391906107e2565b6004819055505f60085f6101000a81548160ff0219169083600281111561011d5761011c610815565b5b02179055505050505050610842565b5f5f5f9054906101000a900473ffffffffffffffffffffffffffffffffffffffff169050815f5f6101000a81548173ffffffffffffffffffffffffffffffffffffffff021916908373ffffffffffffffffffffffffffffffffffffffff1602179055508173ffffffffffffffffffffffffffffffffffffffff168173ffffffffffffffffffffffffffffffffffffffff167f8be0079c531659141344cd1fd0a4f28419497f9722a3daafe3b4186f6b6457e060405160405180910390a35050565b5f604051905090565b5f5ffd5b5f5ffd5b5f5ffd5b5f5ffd5b5f601f19601f8301169050919050565b7f4e487b71000000000000000000000000000000000000000000000000000000005f52604160045260245ffd5b61024c82610206565b810181811067ffffffffffffffff8211171561026b5761026a610216565b5b80604052505050565b5f61027d6101ed565b90506102898282610243565b919050565b5f67ffffffffffffffff8211156102a8576102a7610216565b5b6102b182610206565b9050602081019050919050565b8281835e5f83830152505050565b5f6102de6102d98461028e565b610274565b9050828152602081018484840111156102fa576102f9610202565b5b6103058482856102be565b509392505050565b5f82601f830112610321576103206101fe565b5b81516103318482602086016102cc565b91505092915050565b5f819050919050565b61034c8161033a565b8114610356575f5ffd5b50565b5f8151905061036781610343565b92915050565b5f73ffffffffffffffffffffffffffffffffffffffff82169050919050565b5f6103968261036d565b9050919050565b6103a68161038c565b81146103b0575f5ffd5b50565b5f815190506103c18161039d565b92915050565b5f5f5f5f5f60a086880312156103e0576103df6101f6565b5b5f86015167ffffffffffffffff8111156103fd576103fc6101fa565b5b6104098882890161030d565b955050602086015167ffffffffffffffff81111561042a576104296101fa565b5b6104368882890161030d565b945050604061044788828901610359565b935050606061045888828901610359565b9250506080610469888289016103b3565b9150509295509295909350565b61047f8161038c565b82525050565b5f6020820190506104985f830184610476565b92915050565b5f81519050919050565b7f4e487b71000000000000000000000000000000000000000000000000000000005f52602260045260245ffd5b5f60028204905060018216806104ec57607f821691505b6020821081036104ff576104fe6104a8565b5b50919050565b5f819050815f5260205f209050919050565b5f6020601f8301049050919050565b5f82821b905092915050565b5f600883026105617fffffffffffffffffffffffffffffffffffffffffffffffffffffffffffffffff82610526565b61056b8683610526565b95508019841693508086168417925050509392505050565b5f819050919050565b5f6105a66105a161059c8461033a565b610583565b61033a565b9050919050565b5f819050919050565b6105bf8361058c565b6105d36105cb826105ad565b848454610532565b825550505050565b5f5f905090565b6105ea6105db565b6105f58184846105b6565b505050565b5b818110156106185761060d5f826105e2565b6001810190506105fb565b5050565b601f82111561065d5761062e81610505565b61063784610517565b81016020851015610646578190505b61065a61065285610517565b8301826105fa565b50505b505050565b5f82821c905092915050565b5f61067d5f1984600802610662565b1980831691505092915050565b5f610695838361066e565b9150826002028217905092915050565b6106ae8261049e565b67ffffffffffffffff8111156106c7576106c6610216565b5b6106d182546104d5565b6106dc82828561061c565b5f60209050601f83116001811461070d575f84156106fb578287015190505b610705858261068a565b86555061076c565b601f19841661071b86610505565b5f5b828110156107425784890151825560018201915060208501945060208101905061071d565b8683101561075f578489015161075b601f89168261066e565b8355505b6001600288020188555050505b505050505050565b7f4e487b71000000000000000000000000000000000000000000000000000000005f52601160045260245ffd5b5f6107ab8261033a565b91506107b68361033a565b92508282026107c48161033a565b915082820484148315176107db576107da610774565b5b5092915050565b5f6107ec8261033a565b91506107f78361033a565b925082820190508082111561080f5761080e610774565b5b92915050565b7f4e487b71000000000000000000000000000000000000000000000000000000005f52602160045260245ffd5b6121d98061084f5f395ff3fe60806040526004361061013f575f3560e01c80637a16478d116100b5578063c2e438941161006e578063c2e4389414610403578063c4ae31681461042d578063ca1d209d14610443578063d5db2d1e1461045f578063f2a6f21514610487578063f2fde38b146104b15761013f565b80637a16478d146102f7578063885e7c62146103335780638da5cb5b1461035d5780638ece7b911461038757806394be0c05146103af578063bfeba227146103d95761013f565b806361dc6b491161010757806361dc6b491461021157806367184e281461023b578063715018a61461026557806372b47b841461027b5780637497211b146102a557806374d8c643146102cd5761013f565b806310550515146101435780631768c2931461016d5780633ccfd60b146101a957806354473f6e146101bf578063590e1ae3146101fb575b5f5ffd5b34801561014e575f5ffd5b506101576104d9565b604051610164919061169e565b60405180910390f35b348015610178575f5ffd5b50610193600480360381019061018e9190611755565b61054d565b6040516101a091906117ad565b60405180910390f35b3480156101b4575f5ffd5b506101bd6105f0565b005b3480156101ca575f5ffd5b506101e560048036038101906101e091906117c6565b61076f565b6040516101f291906118bd565b60405180910390f35b348015610206575f5ffd5b5061020f61088a565b005b34801561021c575f5ffd5b50610225610a7a565b604051610232919061169e565b60405180910390f35b348015610246575f5ffd5b5061024f610a8f565b60405161025c91906118ec565b60405180910390f35b348015610270575f5ffd5b50610279610a9b565b005b348015610286575f5ffd5b5061028f610aae565b60405161029c91906118ec565b60405180910390f35b3480156102b0575f5ffd5b506102cb60048036038101906102c691906117c6565b610ab7565b005b3480156102d8575f5ffd5b506102e1610bc0565b6040516102ee919061194d565b60405180910390f35b348015610302575f5ffd5b5061031d6004803603810190610318919061196d565b610c50565b60405161032a91906118ec565b60405180910390f35b34801561033e575f5ffd5b50610347610c98565b604051610354919061194d565b60405180910390f35b348015610368575f5ffd5b50610371610d28565b60405161037e91906119a7565b60405180910390f35b348015610392575f5ffd5b506103ad60048036038101906103a89190611aec565b610d4f565b005b3480156103ba575f5ffd5b506103c3610e06565b6040516103d09190611c4e565b60405180910390f35b3480156103e4575f5ffd5b506103ed610f05565b6040516103fa91906118ec565b60405180910390f35b34801561040e575f5ffd5b50610417610f0c565b60405161042491906118ec565b60405180910390f35b348015610438575f5ffd5b50610441610f15565b005b61045d600480360381019061045891906117c6565b610f47565b005b34801561046a575f5ffd5b50610485600480360381019061048091906117c6565b611228565b005b348015610492575f5ffd5b5061049b61130a565b6040516104a891906117ad565b60405180910390f35b3480156104bc575f5ffd5b506104d760048036038101906104d2919061196d565b61131f565b005b5f5f60028111156104ed576104ec61162b565b5b60085f9054906101000a900460ff16600281111561050e5761050d61162b565b5b036105385760045442106105375760035447101561052d576002610530565b60015b905061054a565b5b60085f9054906101000a900460ff1690505b90565b5f600680549050821061058c576040517f38ff52eb00000000000000000000000000000000000000000000000000000000815260040160405180910390fd5b60075f8473ffffffffffffffffffffffffffffffffffffffff1673ffffffffffffffffffffffffffffffffffffffff1681526020019081526020015f206001015f8381526020019081526020015f205f9054906101000a900460ff16905092915050565b6105f86113a3565b61060061142a565b600160028111156106145761061361162b565b5b60085f9054906101000a900460ff1660028111156106355761063461162b565b5b1461066c576040517f3b42e52200000000000000000000000000000000000000000000000000000000815260040160405180910390fd5b5f4790505f610679610d28565b73ffffffffffffffffffffffffffffffffffffffff168260405161069c90611c9b565b5f6040518083038185875af1925050503d805f81146106d6576040519150601f19603f3d011682016040523d82523d5f602084013e6106db565b606091505b5050905080610716576040517f9066a63800000000000000000000000000000000000000000000000000000000815260040160405180910390fd5b61071e610d28565b73ffffffffffffffffffffffffffffffffffffffff167f06a0982d8b0bd87e1ae43f31a116ca52b1353fbc3dc30a1a97cf143da800cb0d8360405161076391906118ec565b60405180910390a25050565b6107776115b4565b60068054905082106107b5576040517f38ff52eb00000000000000000000000000000000000000000000000000000000815260040160405180910390fd5b600682815481106107c9576107c8611caf565b5b905f5260205f2090600302016040518060600160405290815f820180546107ef90611d09565b80601f016020809104026020016040519081016040528092919081815260200182805461081b90611d09565b80156108665780601f1061083d57610100808354040283529160200191610866565b820191905f5260205f20905b81548152906001019060200180831161084957829003601f168201915b50505050508152602001600182015481526020016002820154815250509050919050565b61089261142a565b6002808111156108a5576108a461162b565b5b60085f9054906101000a900460ff1660028111156108c6576108c561162b565b5b146108fd576040517fb0f8da1600000000000000000000000000000000000000000000000000000000815260040160405180910390fd5b5f60075f3373ffffffffffffffffffffffffffffffffffffffff1673ffffffffffffffffffffffffffffffffffffffff1681526020019081526020015f2090505f815f015403610979576040517fa878662d00000000000000000000000000000000000000000000000000000000815260040160405180910390fd5b5f815f015490505f825f01819055505f3373ffffffffffffffffffffffffffffffffffffffff16826040516109ad90611c9b565b5f6040518083038185875af1925050503d805f81146109e7576040519150601f19603f3d011682016040523d82523d5f602084013e6109ec565b606091505b5050905080610a27576040517f9066a63800000000000000000000000000000000000000000000000000000000815260040160405180910390fd5b3373ffffffffffffffffffffffffffffffffffffffff167f813795cf86527498dec1940f7ebd6f9f5374c15bf1c5931d05b389afdb149d1283604051610a6d91906118ec565b60405180910390a2505050565b5f60085f9054906101000a900460ff16905090565b5f600680549050905090565b610aa36113a3565b610aac5f6114ec565b565b5f600354905090565b610abf6113a3565b6006805490508110610afd576040517f38ff52eb00000000000000000000000000000000000000000000000000000000815260040160405180910390fd5b60066001600680549050610b119190611d66565b81548110610b2257610b21611caf565b5b905f5260205f20906003020160068281548110610b4257610b41611caf565b5b905f5260205f2090600302015f8201815f019081610b609190611f4e565b5060018201548160010155600282015481600201559050506006805480610b8a57610b89612033565b5b600190038181905f5260205f2090600302015f5f82015f610bab91906115d3565b600182015f9055600282015f90555050905550565b606060028054610bcf90611d09565b80601f0160208091040260200160405190810160405280929190818152602001828054610bfb90611d09565b8015610c465780601f10610c1d57610100808354040283529160200191610c46565b820191905f5260205f20905b815481529060010190602001808311610c2957829003601f168201915b5050505050905090565b5f60075f8373ffffffffffffffffffffffffffffffffffffffff1673ffffffffffffffffffffffffffffffffffffffff1681526020019081526020015f205f01549050919050565b606060018054610ca790611d09565b80601f0160208091040260200160405190810160405280929190818152602001828054610cd390611d09565b8015610d1e5780601f10610cf557610100808354040283529160200191610d1e565b820191905f5260205f20905b815481529060010190602001808311610d0157829003601f168201915b5050505050905090565b5f5f5f9054906101000a900473ffffffffffffffffffffffffffffffffffffffff16905090565b610d576113a3565b5f8103610d90576040517ffb24380f00000000000000000000000000000000000000000000000000000000815260040160405180910390fd5b5f60405180606001604052808481526020018381526020015f8152509050600681908060018154018082558091505060019003905f5260205f2090600302015f909190919091505f820151815f019081610dea9190612060565b5060208201518160010155604082015181600201555050505050565b60606006805480602002602001604051908101604052809291908181526020015f905b82821015610efc578382905f5260205f2090600302016040518060600160405290815f82018054610e5990611d09565b80601f0160208091040260200160405190810160405280929190818152602001828054610e8590611d09565b8015610ed05780601f10610ea757610100808354040283529160200191610ed0565b820191905f5260205f20905b815481529060010190602001808311610eb357829003601f168201915b505050505081526020016001820154815260200160028201548152505081526020019060010190610e29565b50505050905090565b5f47905090565b5f600454905090565b610f1d6113a3565b60055f9054906101000a900460ff161560055f6101000a81548160ff021916908315150217905550565b6004544210610f8d57600354471015610f61576002610f64565b60015b60085f6101000a81548160ff02191690836002811115610f8757610f8661162b565b5b02179055505b5f6002811115610fa057610f9f61162b565b5b60085f9054906101000a900460ff166002811115610fc157610fc061162b565b5b14610ff8576040517fce4ecb8800000000000000000000000000000000000000000000000000000000815260040160405180910390fd5b60055f9054906101000a900460ff161561103e576040517f5d067d8000000000000000000000000000000000000000000000000000000000815260040160405180910390fd5b600680549050811061107c576040517f38ff52eb00000000000000000000000000000000000000000000000000000000815260040160405180910390fd5b600681815481106110905761108f611caf565b5b905f5260205f209060030201600101543410156110d9576040517fa74e5cbd00000000000000000000000000000000000000000000000000000000815260040160405180910390fd5b6001600682815481106110ef576110ee611caf565b5b905f5260205f2090600302016002015f82825461110c919061212f565b925050819055503460075f3373ffffffffffffffffffffffffffffffffffffffff1673ffffffffffffffffffffffffffffffffffffffff1681526020019081526020015f205f015f828254611161919061212f565b92505081905550600160075f3373ffffffffffffffffffffffffffffffffffffffff1673ffffffffffffffffffffffffffffffffffffffff1681526020019081526020015f206001015f8381526020019081526020015f205f6101000a81548160ff0219169083151502179055506111d761142a565b3373ffffffffffffffffffffffffffffffffffffffff167f1dff23b965dba2af250c61d628a9dbc3857e77c638b2b4655d1fa20dfdf2a17a3460405161121d91906118ec565b60405180910390a250565b6112306113a3565b60045442106112765760035447101561124a57600261124d565b60015b60085f6101000a81548160ff021916908360028111156112705761126f61162b565b5b02179055505b5f60028111156112895761128861162b565b5b60085f9054906101000a900460ff1660028111156112aa576112a961162b565b5b146112e1576040517fce4ecb8800000000000000000000000000000000000000000000000000000000815260040160405180910390fd5b62015180816112f09190612162565b60045f828254611300919061212f565b9250508190555050565b5f60055f9054906101000a900460ff16905090565b6113276113a3565b5f73ffffffffffffffffffffffffffffffffffffffff168173ffffffffffffffffffffffffffffffffffffffff1603611397575f6040517f1e4fbdf700000000000000000000000000000000000000000000000000000000815260040161138e91906119a7565b60405180910390fd5b6113a0816114ec565b50565b6113ab6115ad565b73ffffffffffffffffffffffffffffffffffffffff166113c9610d28565b73ffffffffffffffffffffffffffffffffffffffff1614611428576113ec6115ad565b6040517f118cdaa700000000000000000000000000000000000000000000000000000000815260040161141f91906119a7565b60405180910390fd5b565b5f600281111561143d5761143c61162b565b5b60085f9054906101000a900460ff16600281111561145e5761145d61162b565b5b036114ea5760045442106114ad5760035447101561147d576002611480565b60015b60085f6101000a81548160ff021916908360028111156114a3576114a261162b565b5b02179055506114e9565b6003544710156114bd575f6114c0565b60015b60085f6101000a81548160ff021916908360028111156114e3576114e261162b565b5b02179055505b5b565b5f5f5f9054906101000a900473ffffffffffffffffffffffffffffffffffffffff169050815f5f6101000a81548173ffffffffffffffffffffffffffffffffffffffff021916908373ffffffffffffffffffffffffffffffffffffffff1602179055508173ffffffffffffffffffffffffffffffffffffffff168173ffffffffffffffffffffffffffffffffffffffff167f8be0079c531659141344cd1fd0a4f28419497f9722a3daafe3b4186f6b6457e060405160405180910390a35050565b5f33905090565b6040518060600160405280606081526020015f81526020015f81525090565b5080546115df90611d09565b5f825580601f106115f0575061160d565b601f0160209004905f5260205f209081019061160c9190611610565b5b50565b5b80821115611627575f815f905550600101611611565b5090565b7f4e487b71000000000000000000000000000000000000000000000000000000005f52602160045260245ffd5b600381106116695761166861162b565b5b50565b5f81905061167982611658565b919050565b5f6116888261166c565b9050919050565b6116988161167e565b82525050565b5f6020820190506116b15f83018461168f565b92915050565b5f604051905090565b5f5ffd5b5f5ffd5b5f73ffffffffffffffffffffffffffffffffffffffff82169050919050565b5f6116f1826116c8565b9050919050565b611701816116e7565b811461170b575f5ffd5b50565b5f8135905061171c816116f8565b92915050565b5f819050919050565b61173481611722565b811461173e575f5ffd5b50565b5f8135905061174f8161172b565b92915050565b5f5f6040838503121561176b5761176a6116c0565b5b5f6117788582860161170e565b925050602061178985828601611741565b9150509250929050565b5f8115159050919050565b6117a781611793565b82525050565b5f6020820190506117c05f83018461179e565b92915050565b5f602082840312156117db576117da6116c0565b5b5f6117e884828501611741565b91505092915050565b5f81519050919050565b5f82825260208201905092915050565b8281835e5f83830152505050565b5f601f19601f8301169050919050565b5f611833826117f1565b61183d81856117fb565b935061184d81856020860161180b565b61185681611819565b840191505092915050565b61186a81611722565b82525050565b5f606083015f8301518482035f86015261188a8282611829565b915050602083015161189f6020860182611861565b5060408301516118b26040860182611861565b508091505092915050565b5f6020820190508181035f8301526118d58184611870565b905092915050565b6118e681611722565b82525050565b5f6020820190506118ff5f8301846118dd565b92915050565b5f82825260208201905092915050565b5f61191f826117f1565b6119298185611905565b935061193981856020860161180b565b61194281611819565b840191505092915050565b5f6020820190508181035f8301526119658184611915565b905092915050565b5f60208284031215611982576119816116c0565b5b5f61198f8482850161170e565b91505092915050565b6119a1816116e7565b82525050565b5f6020820190506119ba5f830184611998565b92915050565b5f5ffd5b5f5ffd5b7f4e487b71000000000000000000000000000000000000000000000000000000005f52604160045260245ffd5b6119fe82611819565b810181811067ffffffffffffffff82111715611a1d57611a1c6119c8565b5b80604052505050565b5f611a2f6116b7565b9050611a3b82826119f5565b919050565b5f67ffffffffffffffff821115611a5a57611a596119c8565b5b611a6382611819565b9050602081019050919050565b828183375f83830152505050565b5f611a90611a8b84611a40565b611a26565b905082815260208101848484011115611aac57611aab6119c4565b5b611ab7848285611a70565b509392505050565b5f82601f830112611ad357611ad26119c0565b5b8135611ae3848260208601611a7e565b91505092915050565b5f5f60408385031215611b0257611b016116c0565b5b5f83013567ffffffffffffffff811115611b1f57611b1e6116c4565b5b611b2b85828601611abf565b9250506020611b3c85828601611741565b9150509250929050565b5f81519050919050565b5f82825260208201905092915050565b5f819050602082019050919050565b5f606083015f8301518482035f860152611b898282611829565b9150506020830151611b9e6020860182611861565b506040830151611bb16040860182611861565b508091505092915050565b5f611bc78383611b6f565b905092915050565b5f602082019050919050565b5f611be582611b46565b611bef8185611b50565b935083602082028501611c0185611b60565b805f5b85811015611c3c5784840389528151611c1d8582611bbc565b9450611c2883611bcf565b925060208a01995050600181019050611c04565b50829750879550505050505092915050565b5f6020820190508181035f830152611c668184611bdb565b905092915050565b5f81905092915050565b50565b5f611c865f83611c6e565b9150611c9182611c78565b5f82019050919050565b5f611ca582611c7b565b9150819050919050565b7f4e487b71000000000000000000000000000000000000000000000000000000005f52603260045260245ffd5b7f4e487b71000000000000000000000000000000000000000000000000000000005f52602260045260245ffd5b5f6002820490506001821680611d2057607f821691505b602082108103611d3357611d32611cdc565b5b50919050565b7f4e487b71000000000000000000000000000000000000000000000000000000005f52601160045260245ffd5b5f611d7082611722565b9150611d7b83611722565b9250828203905081811115611d9357611d92611d39565b5b92915050565b5f81549050611da781611d09565b9050919050565b5f819050815f5260205f209050919050565b5f6020601f8301049050919050565b5f82821b905092915050565b5f60088302611e0a7fffffffffffffffffffffffffffffffffffffffffffffffffffffffffffffffff82611dcf565b611e148683611dcf565b95508019841693508086168417925050509392505050565b5f819050919050565b5f611e4f611e4a611e4584611722565b611e2c565b611722565b9050919050565b5f819050919050565b611e6883611e35565b611e7c611e7482611e56565b848454611ddb565b825550505050565b5f5f905090565b611e93611e84565b611e9e818484611e5f565b505050565b5b81811015611ec157611eb65f82611e8b565b600181019050611ea4565b5050565b601f821115611f0657611ed781611dae565b611ee084611dc0565b81016020851015611eef578190505b611f03611efb85611dc0565b830182611ea3565b50505b505050565b5f82821c905092915050565b5f611f265f1984600802611f0b565b1980831691505092915050565b5f611f3e8383611f17565b9150826002028217905092915050565b818103611f5c575050612031565b611f6582611d99565b67ffffffffffffffff811115611f7e57611f7d6119c8565b5b611f888254611d09565b611f93828285611ec5565b5f601f831160018114611fc0575f8415611fae578287015490505b611fb88582611f33565b86555061202a565b601f198416611fce87611dae565b9650611fd986611dae565b5f5b8281101561200057848901548255600182019150600185019450602081019050611fdb565b8683101561201d5784890154612019601f891682611f17565b8355505b6001600288020188555050505b5050505050505b565b7f4e487b71000000000000000000000000000000000000000000000000000000005f52603160045260245ffd5b612069826117f1565b67ffffffffffffffff811115612082576120816119c8565b5b61208c8254611d09565b612097828285611ec5565b5f60209050601f8311600181146120c8575f84156120b6578287015190505b6120c08582611f33565b865550612127565b601f1984166120d686611dae565b5f5b828110156120fd578489015182556001820191506020850194506020810190506120d8565b8683101561211a5784890151612116601f891682611f17565b8355505b6001600288020188555050505b505050505050565b5f61213982611722565b915061214483611722565b925082820190508082111561215c5761215b611d39565b5b92915050565b5f61216c82611722565b915061217783611722565b925082820261218581611722565b9150828204841483151761219c5761219b611d39565b5b509291505056fea2646970667358221220740f963836b4d8c05640b039c83788d6567ab75a18718be8a8f1c51d5ea2430b64736f6c634300081e0033",
    "linkReferences": {}
  },
  "methodIdentifiers": {
    "addTier(string,uint256)": "8ece7b91",
    "extendCampaignDeadline(uint256)": "d5db2d1e",
    "fund(uint256)": "ca1d209d",
    "getBackerAmount(address)": "7a16478d",
    "getBackerHasFundedTier(address,uint256)": "1768c293",
    "getCampaignBalance()": "bfeba227",
    "getCampaignDeadline()": "c2e43894",
    "getCampaignDescription()": "74d8c643",
    "getCampaignGoal()": "72b47b84",
    "getCampaignName()": "885e7c62",
    "getCampaignStatus()": "10550515",
    "getCampaignStatusRow()": "61dc6b49",
    "getFundingTierInfo(uint256)": "54473f6e",
    "getFundingTiers()": "94be0c05",
    "getIsPaused()": "f2a6f215",
    "getTierCount()": "67184e28",
    "owner()": "8da5cb5b",
    "refund()": "590e1ae3",
    "removeTier(uint256)": "7497211b",
    "renounceOwnership()": "715018a6",
    "togglePause()": "c4ae3168",
    "transferOwnership(address)": "f2fde38b",
    "withdraw()": "3ccfd60b"
  },
  "id": 21
}